{"abi":[{"type":"function","name":"readNumberOfHorses","inputs":[],"outputs":[{"name":"","type":"uint256","internalType":"uint256"}],"stateMutability":"view"},{"type":"function","name":"updateHorseNumber","inputs":[{"name":"newNumberOfHorses","type":"uint256","internalType":"uint256"}],"outputs":[],"stateMutability":"nonpayable"}],"bytecode":{"object":"0x608060405234801561000f575f80fd5b5060b48061001c5f395ff3fe6080604052348015600e575f80fd5b50600436106030575f3560e01c8063cdfead2e146034578063e026c017146045575b5f80fd5b6043603f3660046068565b5f55565b005b604b605d565b60405190815260200160405180910390f35b5f8054805f5260205ff35b5f602082840312156077575f80fd5b503591905056fea2646970667358221220c32a15e89a8e45c5464ac2a4d67a1d12b68af509d010ce75873cd46ead2c551c64736f6c63430008170033","linkReferences":{}},"methodIdentifiers":{"readNumberOfHorses()":"e026c017","updateHorseNumber(uint256)":"cdfead2e"},"id":37}