{"abi":[{"type":"constructor","inputs":[],"stateMutability":"nonpayable"},{"type":"function","name":"HORSE_HAPPY_IF_FED_WITHIN","inputs":[],"outputs":[{"name":"","type":"uint256","internalType":"uint256"}],"stateMutability":"view"},{"type":"function","name":"approve","inputs":[{"name":"to","type":"address","internalType":"address"},{"name":"tokenId","type":"uint256","internalType":"uint256"}],"outputs":[],"stateMutability":"nonpayable"},{"type":"function","name":"balanceOf","inputs":[{"name":"owner","type":"address","internalType":"address"}],"outputs":[{"name":"","type":"uint256","internalType":"uint256"}],"stateMutability":"view"},{"type":"function","name":"feedHorse","inputs":[{"name":"horseId","type":"uint256","internalType":"uint256"}],"outputs":[],"stateMutability":"nonpayable"},{"type":"function","name":"getApproved","inputs":[{"name":"tokenId","type":"uint256","internalType":"uint256"}],"outputs":[{"name":"","type":"address","internalType":"address"}],"stateMutability":"view"},{"type":"function","name":"horseIdToFedTimeStamp","inputs":[{"name":"id","type":"uint256","internalType":"uint256"}],"outputs":[{"name":"lastFedTimeStamp","type":"uint256","internalType":"uint256"}],"stateMutability":"view"},{"type":"function","name":"isApprovedForAll","inputs":[{"name":"owner","type":"address","internalType":"address"},{"name":"operator","type":"address","internalType":"address"}],"outputs":[{"name":"","type":"bool","internalType":"bool"}],"stateMutability":"view"},{"type":"function","name":"isHappyHorse","inputs":[{"name":"horseId","type":"uint256","internalType":"uint256"}],"outputs":[{"name":"","type":"bool","internalType":"bool"}],"stateMutability":"view"},{"type":"function","name":"mintHorse","inputs":[],"outputs":[],"stateMutability":"nonpayable"},{"type":"function","name":"name","inputs":[],"outputs":[{"name":"","type":"string","internalType":"string"}],"stateMutability":"view"},{"type":"function","name":"ownerOf","inputs":[{"name":"tokenId","type":"uint256","internalType":"uint256"}],"outputs":[{"name":"","type":"address","internalType":"address"}],"stateMutability":"view"},{"type":"function","name":"safeTransferFrom","inputs":[{"name":"from","type":"address","internalType":"address"},{"name":"to","type":"address","internalType":"address"},{"name":"tokenId","type":"uint256","internalType":"uint256"}],"outputs":[],"stateMutability":"nonpayable"},{"type":"function","name":"safeTransferFrom","inputs":[{"name":"from","type":"address","internalType":"address"},{"name":"to","type":"address","internalType":"address"},{"name":"tokenId","type":"uint256","internalType":"uint256"},{"name":"data","type":"bytes","internalType":"bytes"}],"outputs":[],"stateMutability":"nonpayable"},{"type":"function","name":"setApprovalForAll","inputs":[{"name":"operator","type":"address","internalType":"address"},{"name":"approved","type":"bool","internalType":"bool"}],"outputs":[],"stateMutability":"nonpayable"},{"type":"function","name":"supportsInterface","inputs":[{"name":"interfaceId","type":"bytes4","internalType":"bytes4"}],"outputs":[{"name":"","type":"bool","internalType":"bool"}],"stateMutability":"view"},{"type":"function","name":"symbol","inputs":[],"outputs":[{"name":"","type":"string","internalType":"string"}],"stateMutability":"view"},{"type":"function","name":"tokenByIndex","inputs":[{"name":"index","type":"uint256","internalType":"uint256"}],"outputs":[{"name":"","type":"uint256","internalType":"uint256"}],"stateMutability":"view"},{"type":"function","name":"tokenOfOwnerByIndex","inputs":[{"name":"owner","type":"address","internalType":"address"},{"name":"index","type":"uint256","internalType":"uint256"}],"outputs":[{"name":"","type":"uint256","internalType":"uint256"}],"stateMutability":"view"},{"type":"function","name":"tokenURI","inputs":[{"name":"tokenId","type":"uint256","internalType":"uint256"}],"outputs":[{"name":"","type":"string","internalType":"string"}],"stateMutability":"view"},{"type":"function","name":"totalSupply","inputs":[],"outputs":[{"name":"","type":"uint256","internalType":"uint256"}],"stateMutability":"view"},{"type":"function","name":"transferFrom","inputs":[{"name":"from","type":"address","internalType":"address"},{"name":"to","type":"address","internalType":"address"},{"name":"tokenId","type":"uint256","internalType":"uint256"}],"outputs":[],"stateMutability":"nonpayable"},{"type":"event","name":"Approval","inputs":[{"name":"owner","type":"address","indexed":true,"internalType":"address"},{"name":"approved","type":"address","indexed":true,"internalType":"address"},{"name":"tokenId","type":"uint256","indexed":true,"internalType":"uint256"}],"anonymous":false},{"type":"event","name":"ApprovalForAll","inputs":[{"name":"owner","type":"address","indexed":true,"internalType":"address"},{"name":"operator","type":"address","indexed":true,"internalType":"address"},{"name":"approved","type":"bool","indexed":false,"internalType":"bool"}],"anonymous":false},{"type":"event","name":"Transfer","inputs":[{"name":"from","type":"address","indexed":true,"internalType":"address"},{"name":"to","type":"address","indexed":true,"internalType":"address"},{"name":"tokenId","type":"uint256","indexed":true,"internalType":"uint256"}],"anonymous":false},{"type":"error","name":"ERC721EnumerableForbiddenBatchMint","inputs":[]},{"type":"error","name":"ERC721IncorrectOwner","inputs":[{"name":"sender","type":"address","internalType":"address"},{"name":"tokenId","type":"uint256","internalType":"uint256"},{"name":"owner","type":"address","internalType":"address"}]},{"type":"error","name":"ERC721InsufficientApproval","inputs":[{"name":"operator","type":"address","internalType":"address"},{"name":"tokenId","type":"uint256","internalType":"uint256"}]},{"type":"error","name":"ERC721InvalidApprover","inputs":[{"name":"approver","type":"address","internalType":"address"}]},{"type":"error","name":"ERC721InvalidOperator","inputs":[{"name":"operator","type":"address","internalType":"address"}]},{"type":"error","name":"ERC721InvalidOwner","inputs":[{"name":"owner","type":"address","internalType":"address"}]},{"type":"error","name":"ERC721InvalidReceiver","inputs":[{"name":"receiver","type":"address","internalType":"address"}]},{"type":"error","name":"ERC721InvalidSender","inputs":[{"name":"sender","type":"address","internalType":"address"}]},{"type":"error","name":"ERC721NonexistentToken","inputs":[{"name":"tokenId","type":"uint256","internalType":"uint256"}]},{"type":"error","name":"ERC721OutOfBoundsIndex","inputs":[{"name":"owner","type":"address","internalType":"address"},{"name":"index","type":"uint256","internalType":"uint256"}]}],"bytecode":{"object":"0x608060405234801562000010575f80fd5b506040518060400160405280600a815260200169486f72736553746f726560b01b81525060405180604001604052806002815260200161485360f01b815250815f90816200005f919062000115565b5060016200006e828262000115565b505050620001e1565b634e487b7160e01b5f52604160045260245ffd5b600181811c90821680620000a057607f821691505b602082108103620000bf57634e487b7160e01b5f52602260045260245ffd5b50919050565b601f8211156200011057805f5260205f20601f840160051c81016020851015620000ec5750805b601f840160051c820191505b818110156200010d575f8155600101620000f8565b50505b505050565b81516001600160401b0381111562000131576200013162000077565b62000149816200014284546200008b565b84620000c5565b602080601f8311600181146200017f575f8415620001675750858301515b5f19600386901b1c1916600185901b178555620001d9565b5f85815260208120601f198616915b82811015620001af578886015182559484019460019091019084016200018e565b5085821015620001cd57878501515f19600388901b60f8161c191681555b505060018460011b0185555b505050505050565b6113cf80620001ef5f395ff3fe608060405234801561000f575f80fd5b5060043610610132575f3560e01c806362134726116100b4578063a22cb46511610079578063a22cb46514610264578063b88d4fde14610277578063c65e2eaa1461028a578063c87b56dd146102aa578063e985e9c5146102bd578063f163af78146102d0575f80fd5b806362134726146102195780636352211e1461022c57806370a082311461023f5780638c1d96ae1461025257806395d89b411461025c575f80fd5b806323b872dd116100fa57806323b872dd146101c55780632f745c59146101d857806342842e0e146101eb5780634f6ccce7146101fe57806361fc6a6714610211575f80fd5b806301ffc9a71461013657806306fdde031461015e578063081812fc14610173578063095ea7b31461019e57806318160ddd146101b3575b5f80fd5b61014961014436600461101c565b6102ef565b60405190151581526020015b60405180910390f35b610166610319565b6040516101559190611084565b610186610181366004611096565b6103a8565b6040516001600160a01b039091168152602001610155565b6101b16101ac3660046110c8565b6103cf565b005b6008545b604051908152602001610155565b6101b16101d33660046110f0565b6103de565b6101b76101e63660046110c8565b61046c565b6101b16101f93660046110f0565b6104cf565b6101b761020c366004611096565b6104ee565b6101b1610543565b610149610227366004611096565b610557565b61018661023a366004611096565b610587565b6101b761024d366004611129565b610591565b6101b76201518081565b6101666105d6565b6101b1610272366004611142565b6105e5565b6101b161028536600461118f565b6105f0565b6101b1610298366004611096565b5f908152600a60205260409020429055565b6101666102b8366004611096565b610607565b6101496102cb366004611264565b610678565b6101b76102de366004611096565b600a6020525f908152604090205481565b5f6001600160e01b0319821663780e9d6360e01b14806103135750610313826106a5565b92915050565b60605f805461032790611295565b80601f016020809104026020016040519081016040528092919081815260200182805461035390611295565b801561039e5780601f106103755761010080835404028352916020019161039e565b820191905f5260205f20905b81548152906001019060200180831161038157829003601f168201915b5050505050905090565b5f6103b2826106f4565b505f828152600460205260409020546001600160a01b0316610313565b6103da82823361072c565b5050565b6001600160a01b03821661040c57604051633250574960e11b81525f60048201526024015b60405180910390fd5b5f610418838333610739565b9050836001600160a01b0316816001600160a01b031614610466576040516364283d7b60e01b81526001600160a01b0380861660048301526024820184905282166044820152606401610403565b50505050565b5f61047683610591565b82106104a75760405163295f44f760e21b81526001600160a01b038416600482015260248101839052604401610403565b506001600160a01b03919091165f908152600660209081526040808320938352929052205490565b6104e983838360405180602001604052805f8152506105f0565b505050565b5f6104f860085490565b82106105205760405163295f44f760e21b81525f600482015260248101839052604401610403565b60088281548110610533576105336112cd565b905f5260205f2001549050919050565b6105553361055060085490565b61080c565b565b5f61056562015180426112e1565b5f838152600a60205260409020541161057f57505f919050565b506001919050565b5f610313826106f4565b5f6001600160a01b0382166105bb576040516322718ad960e21b81525f6004820152602401610403565b506001600160a01b03165f9081526003602052604090205490565b60606001805461032790611295565b6103da338383610825565b6105fb8484846103de565b610466848484846108c3565b6060610612826106f4565b505f61062860408051602081019091525f815290565b90505f8151116106465760405180602001604052805f815250610671565b80610650846109e9565b604051602001610661929190611300565b6040516020818303038152906040525b9392505050565b6001600160a01b039182165f90815260056020908152604080832093909416825291909152205460ff1690565b5f6001600160e01b031982166380ac58cd60e01b14806106d557506001600160e01b03198216635b5e139f60e01b145b8061031357506301ffc9a760e01b6001600160e01b0319831614610313565b5f818152600260205260408120546001600160a01b03168061031357604051637e27328960e01b815260048101849052602401610403565b6104e98383836001610a79565b5f80610746858585610b7d565b90506001600160a01b0381166107a25761079d84600880545f838152600960205260408120829055600182018355919091527ff3f7a9fe364faab93b216da50a3214154f22a0a2b415b23a84c8169e8b636ee30155565b6107c5565b846001600160a01b0316816001600160a01b0316146107c5576107c58185610c6f565b6001600160a01b0385166107e1576107dc84610cfc565b610804565b846001600160a01b0316816001600160a01b031614610804576108048585610da3565b949350505050565b6103da828260405180602001604052805f815250610df1565b6001600160a01b03821661085757604051630b61174360e31b81526001600160a01b0383166004820152602401610403565b6001600160a01b038381165f81815260056020908152604080832094871680845294825291829020805460ff191686151590811790915591519182527f17307eab39ab6107e8899845ad3d59bd9653f200f220920489ca2b5937696c31910160405180910390a3505050565b6001600160a01b0383163b1561046657604051630a85bd0160e11b81526001600160a01b0384169063150b7a029061090590339088908790879060040161132e565b6020604051808303815f875af192505050801561093f575060408051601f3d908101601f1916820190925261093c9181019061136a565b60015b6109a6573d80801561096c576040519150601f19603f3d011682016040523d82523d5f602084013e610971565b606091505b5080515f0361099e57604051633250574960e11b81526001600160a01b0385166004820152602401610403565b805181602001fd5b6001600160e01b03198116630a85bd0160e11b146109e257604051633250574960e11b81526001600160a01b0385166004820152602401610403565b5050505050565b60605f6109f583610e07565b60010190505f8167ffffffffffffffff811115610a1457610a1461117b565b6040519080825280601f01601f191660200182016040528015610a3e576020820181803683370190505b5090508181016020015b5f19016f181899199a1a9b1b9c1cb0b131b232b360811b600a86061a8153600a8504945084610a4857509392505050565b8080610a8d57506001600160a01b03821615155b15610b4e575f610a9c846106f4565b90506001600160a01b03831615801590610ac85750826001600160a01b0316816001600160a01b031614155b8015610adb5750610ad98184610678565b155b15610b045760405163a9fbf51f60e01b81526001600160a01b0384166004820152602401610403565b8115610b4c5783856001600160a01b0316826001600160a01b03167f8c5be1e5ebec7d5bd14f71427d1e84f3dd0314c0f7b2291e5b200ac8c7c3b92560405160405180910390a45b505b50505f90815260046020526040902080546001600160a01b0319166001600160a01b0392909216919091179055565b5f828152600260205260408120546001600160a01b0390811690831615610ba957610ba9818486610ede565b6001600160a01b03811615610be357610bc45f855f80610a79565b6001600160a01b0381165f90815260036020526040902080545f190190555b6001600160a01b03851615610c11576001600160a01b0385165f908152600360205260409020805460010190555b5f8481526002602052604080822080546001600160a01b0319166001600160a01b0389811691821790925591518793918516917fddf252ad1be2c89b69c2b068fc378daa952ba7f163c4a11628f55a4df523b3ef91a4949350505050565b5f610c7983610591565b5f83815260076020526040902054909150808214610cca576001600160a01b0384165f9081526006602090815260408083208584528252808320548484528184208190558352600790915290208190555b505f9182526007602090815260408084208490556001600160a01b039094168352600681528383209183525290812055565b6008545f90610d0d906001906112e1565b5f8381526009602052604081205460088054939450909284908110610d3457610d346112cd565b905f5260205f20015490508060088381548110610d5357610d536112cd565b5f918252602080832090910192909255828152600990915260408082208490558582528120556008805480610d8a57610d8a611385565b600190038181905f5260205f20015f9055905550505050565b5f6001610daf84610591565b610db991906112e1565b6001600160a01b039093165f908152600660209081526040808320868452825280832085905593825260079052919091209190915550565b610dfb8383610f42565b6104e95f8484846108c3565b5f8072184f03e93ff9f4daa797ed6e38ed64bf6a1f0160401b8310610e455772184f03e93ff9f4daa797ed6e38ed64bf6a1f0160401b830492506040015b6d04ee2d6d415b85acef81000000008310610e71576d04ee2d6d415b85acef8100000000830492506020015b662386f26fc100008310610e8f57662386f26fc10000830492506010015b6305f5e1008310610ea7576305f5e100830492506008015b6127108310610ebb57612710830492506004015b60648310610ecd576064830492506002015b600a83106103135760010192915050565b610ee9838383610fa3565b6104e9576001600160a01b038316610f1757604051637e27328960e01b815260048101829052602401610403565b60405163177e802f60e01b81526001600160a01b038316600482015260248101829052604401610403565b6001600160a01b038216610f6b57604051633250574960e11b81525f6004820152602401610403565b5f610f7783835f610739565b90506001600160a01b038116156104e9576040516339e3563760e11b81525f6004820152602401610403565b5f6001600160a01b038316158015906108045750826001600160a01b0316846001600160a01b03161480610fdc5750610fdc8484610678565b806108045750505f908152600460205260409020546001600160a01b03908116911614919050565b6001600160e01b031981168114611019575f80fd5b50565b5f6020828403121561102c575f80fd5b813561067181611004565b5f5b83811015611051578181015183820152602001611039565b50505f910152565b5f8151808452611070816020860160208601611037565b601f01601f19169290920160200192915050565b602081525f6106716020830184611059565b5f602082840312156110a6575f80fd5b5035919050565b80356001600160a01b03811681146110c3575f80fd5b919050565b5f80604083850312156110d9575f80fd5b6110e2836110ad565b946020939093013593505050565b5f805f60608486031215611102575f80fd5b61110b846110ad565b9250611119602085016110ad565b9150604084013590509250925092565b5f60208284031215611139575f80fd5b610671826110ad565b5f8060408385031215611153575f80fd5b61115c836110ad565b915060208301358015158114611170575f80fd5b809150509250929050565b634e487b7160e01b5f52604160045260245ffd5b5f805f80608085870312156111a2575f80fd5b6111ab856110ad565b93506111b9602086016110ad565b925060408501359150606085013567ffffffffffffffff808211156111dc575f80fd5b818701915087601f8301126111ef575f80fd5b8135818111156112015761120161117b565b604051601f8201601f19908116603f011681019083821181831017156112295761122961117b565b816040528281528a6020848701011115611241575f80fd5b826020860160208301375f60208483010152809550505050505092959194509250565b5f8060408385031215611275575f80fd5b61127e836110ad565b915061128c602084016110ad565b90509250929050565b600181811c908216806112a957607f821691505b6020821081036112c757634e487b7160e01b5f52602260045260245ffd5b50919050565b634e487b7160e01b5f52603260045260245ffd5b8181038181111561031357634e487b7160e01b5f52601160045260245ffd5b5f8351611311818460208801611037565b835190830190611325818360208801611037565b01949350505050565b6001600160a01b03858116825284166020820152604081018390526080606082018190525f9061136090830184611059565b9695505050505050565b5f6020828403121561137a575f80fd5b815161067181611004565b634e487b7160e01b5f52603160045260245ffdfea2646970667358221220cd3f6d29f758dfdcaeca92be478331ad3a20cf4948544afb6a4847f055cd06ab64736f6c63430008170033","linkReferences":{}},"methodIdentifiers":{"HORSE_HAPPY_IF_FED_WITHIN()":"8c1d96ae","approve(address,uint256)":"095ea7b3","balanceOf(address)":"70a08231","feedHorse(uint256)":"c65e2eaa","getApproved(uint256)":"081812fc","horseIdToFedTimeStamp(uint256)":"f163af78","isApprovedForAll(address,address)":"e985e9c5","isHappyHorse(uint256)":"62134726","mintHorse()":"61fc6a67","name()":"06fdde03","ownerOf(uint256)":"6352211e","safeTransferFrom(address,address,uint256)":"42842e0e","safeTransferFrom(address,address,uint256,bytes)":"b88d4fde","setApprovalForAll(address,bool)":"a22cb465","supportsInterface(bytes4)":"01ffc9a7","symbol()":"95d89b41","tokenByIndex(uint256)":"4f6ccce7","tokenOfOwnerByIndex(address,uint256)":"2f745c59","tokenURI(uint256)":"c87b56dd","totalSupply()":"18160ddd","transferFrom(address,address,uint256)":"23b872dd"},"id":39}