{
    "abi": [
        {
            "type": "function",
            "name": "readNumberOfHorses",
            "inputs": [],
            "outputs": [
                {
                    "name": "",
                    "type": "uint256",
                    "internalType": "uint256"
                }
            ],
            "stateMutability": "view"
        },
        {
            "type": "function",
            "name": "updateHorseNumber",
            "inputs": [
                {
                    "name": "newNumberOfHorses",
                    "type": "uint256",
                    "internalType": "uint256"
                }
            ],
            "outputs": [],
            "stateMutability": "nonpayable"
        }
    ],
    "bytecode": {
        "object": "0x6080604052348015600e575f80fd5b5060a58061001b5f395ff3fe6080604052348015600e575f80fd5b50600436106030575f3560e01c8063cdfead2e146034578063e026c017146045575b5f80fd5b6043603f3660046059565b5f55565b005b5f5460405190815260200160405180910390f35b5f602082840312156068575f80fd5b503591905056fea2646970667358221220b2d4551faecc01323fad45407dc85b5b48ef341912bad2715dd5a65a823928c264736f6c63430008170033",
        "linkReferences": {}
    },
    "methodIdentifiers": {
        "readNumberOfHorses()": "e026c017",
        "updateHorseNumber(uint256)": "cdfead2e"
    },
    "id": 26
}